{
  "contractName": "AcademicMeritToken",
  "abi": [
    {
      "inputs": [],
      "stateMutability": "nonpayable",
      "type": "constructor"
    },
    {
      "anonymous": false,
      "inputs": [
        {
          "indexed": true,
          "internalType": "address",
          "name": "owner",
          "type": "address"
        },
        {
          "indexed": true,
          "internalType": "address",
          "name": "spender",
          "type": "address"
        },
        {
          "indexed": false,
          "internalType": "uint256",
          "name": "value",
          "type": "uint256"
        }
      ],
      "name": "Approval",
      "type": "event"
    },
    {
      "anonymous": false,
      "inputs": [
        {
          "indexed": true,
          "internalType": "address",
          "name": "student",
          "type": "address"
        },
        {
          "indexed": false,
          "internalType": "uint256",
          "name": "amount",
          "type": "uint256"
        },
        {
          "indexed": false,
          "internalType": "string",
          "name": "reason",
          "type": "string"
        }
      ],
      "name": "Awarded",
      "type": "event"
    },
    {
      "anonymous": false,
      "inputs": [
        {
          "indexed": true,
          "internalType": "address",
          "name": "student",
          "type": "address"
        },
        {
          "indexed": false,
          "internalType": "uint256",
          "name": "amount",
          "type": "uint256"
        }
      ],
      "name": "Redeemed",
      "type": "event"
    },
    {
      "anonymous": false,
      "inputs": [
        {
          "indexed": true,
          "internalType": "address",
          "name": "from",
          "type": "address"
        },
        {
          "indexed": true,
          "internalType": "address",
          "name": "to",
          "type": "address"
        },
        {
          "indexed": false,
          "internalType": "uint256",
          "name": "value",
          "type": "uint256"
        }
      ],
      "name": "Transfer",
      "type": "event"
    },
    {
      "inputs": [],
      "name": "admin",
      "outputs": [
        {
          "internalType": "address",
          "name": "",
          "type": "address"
        }
      ],
      "stateMutability": "view",
      "type": "function"
    },
    {
      "inputs": [
        {
          "internalType": "address",
          "name": "",
          "type": "address"
        },
        {
          "internalType": "address",
          "name": "",
          "type": "address"
        }
      ],
      "name": "allowance",
      "outputs": [
        {
          "internalType": "uint256",
          "name": "",
          "type": "uint256"
        }
      ],
      "stateMutability": "view",
      "type": "function"
    },
    {
      "inputs": [
        {
          "internalType": "address",
          "name": "",
          "type": "address"
        }
      ],
      "name": "balanceOf",
      "outputs": [
        {
          "internalType": "uint256",
          "name": "",
          "type": "uint256"
        }
      ],
      "stateMutability": "view",
      "type": "function"
    },
    {
      "inputs": [],
      "name": "decimals",
      "outputs": [
        {
          "internalType": "uint8",
          "name": "",
          "type": "uint8"
        }
      ],
      "stateMutability": "view",
      "type": "function"
    },
    {
      "inputs": [],
      "name": "name",
      "outputs": [
        {
          "internalType": "string",
          "name": "",
          "type": "string"
        }
      ],
      "stateMutability": "view",
      "type": "function"
    },
    {
      "inputs": [],
      "name": "symbol",
      "outputs": [
        {
          "internalType": "string",
          "name": "",
          "type": "string"
        }
      ],
      "stateMutability": "view",
      "type": "function"
    },
    {
      "inputs": [],
      "name": "totalSupply",
      "outputs": [
        {
          "internalType": "uint256",
          "name": "",
          "type": "uint256"
        }
      ],
      "stateMutability": "view",
      "type": "function"
    },
    {
      "inputs": [
        {
          "internalType": "address",
          "name": "to",
          "type": "address"
        },
        {
          "internalType": "uint256",
          "name": "value",
          "type": "uint256"
        }
      ],
      "name": "transfer",
      "outputs": [
        {
          "internalType": "bool",
          "name": "",
          "type": "bool"
        }
      ],
      "stateMutability": "nonpayable",
      "type": "function"
    },
    {
      "inputs": [
        {
          "internalType": "address",
          "name": "spender",
          "type": "address"
        },
        {
          "internalType": "uint256",
          "name": "value",
          "type": "uint256"
        }
      ],
      "name": "approve",
      "outputs": [
        {
          "internalType": "bool",
          "name": "",
          "type": "bool"
        }
      ],
      "stateMutability": "nonpayable",
      "type": "function"
    },
    {
      "inputs": [
        {
          "internalType": "address",
          "name": "from",
          "type": "address"
        },
        {
          "internalType": "address",
          "name": "to",
          "type": "address"
        },
        {
          "internalType": "uint256",
          "name": "value",
          "type": "uint256"
        }
      ],
      "name": "transferFrom",
      "outputs": [
        {
          "internalType": "bool",
          "name": "",
          "type": "bool"
        }
      ],
      "stateMutability": "nonpayable",
      "type": "function"
    },
    {
      "inputs": [
        {
          "internalType": "address",
          "name": "student",
          "type": "address"
        },
        {
          "internalType": "uint256",
          "name": "amount",
          "type": "uint256"
        },
        {
          "internalType": "string",
          "name": "reason",
          "type": "string"
        }
      ],
      "name": "awardStudent",
      "outputs": [],
      "stateMutability": "nonpayable",
      "type": "function"
    },
    {
      "inputs": [
        {
          "internalType": "uint256",
          "name": "amount",
          "type": "uint256"
        }
      ],
      "name": "redeem",
      "outputs": [],
      "stateMutability": "nonpayable",
      "type": "function"
    },
    {
      "inputs": [
        {
          "internalType": "address",
          "name": "student",
          "type": "address"
        },
        {
          "internalType": "uint256",
          "name": "amount",
          "type": "uint256"
        }
      ],
      "name": "redeemStudent",
      "outputs": [],
      "stateMutability": "nonpayable",
      "type": "function"
    },
    {
      "inputs": [
        {
          "internalType": "address",
          "name": "student",
          "type": "address"
        }
      ],
      "name": "getBalance",
      "outputs": [
        {
          "internalType": "uint256",
          "name": "",
          "type": "uint256"
        }
      ],
      "stateMutability": "view",
      "type": "function"
    }
  ],
  "bytecode": "0x60c0604052601460809081527f41636164656d6963204d6572697420546f6b656e00000000000000000000000060a0526000906200003e908262000141565b5060408051808201909152600381526210535560ea1b602082015260019062000068908262000141565b506002805460ff191660121790553480156200008357600080fd5b50600680546001600160a01b031916331790556200020d565b634e487b7160e01b600052604160045260246000fd5b600181811c90821680620000c757607f821691505b602082108103620000e857634e487b7160e01b600052602260045260246000fd5b50919050565b601f8211156200013c57600081815260208120601f850160051c81016020861015620001175750805b601f850160051c820191505b81811015620001385782815560010162000123565b5050505b505050565b81516001600160401b038111156200015d576200015d6200009c565b62000175816200016e8454620000b2565b84620000ee565b602080601f831160018114620001ad5760008415620001945750858301515b600019600386901b1c1916600185901b17855562000138565b600085815260208120601f198616915b82811015620001de57888601518255948401946001909101908401620001bd565b5085821015620001fd5787850151600019600388901b60f8161c191681555b5050505050600190811b01905550565b610e36806200021d6000396000f3fe608060405234801561001057600080fd5b50600436106100ea5760003560e01c806370a082311161008c578063db006a7511610066578063db006a75146101dc578063dd62ed3e146101ef578063f851a4401461021a578063f8b2cb4f1461024557600080fd5b806370a08231146101a157806395d89b41146101c1578063a9059cbb146101c957600080fd5b806323b872dd116100c857806323b872dd14610147578063313ce5671461015a5780633893c0f71461017957806368a37c731461018e57600080fd5b806306fdde03146100ef578063095ea7b31461010d57806318160ddd14610130575b600080fd5b6100f7610258565b60405161010491906109d4565b60405180910390f35b61012061011b366004610a0a565b6102e6565b6040519015158152602001610104565b61013960035481565b604051908152602001610104565b610120610155366004610a34565b610353565b6002546101679060ff1681565b60405160ff9091168152602001610104565b61018c610187366004610a0a565b6104ce565b005b61018c61019c366004610a86565b61064b565b6101396101af366004610b51565b60046020526000908152604090205481565b6100f7610793565b6101206101d7366004610a0a565b6107a0565b61018c6101ea366004610b6c565b61084b565b6101396101fd366004610b85565b600560209081526000928352604080842090915290825290205481565b60065461022d906001600160a01b031681565b6040516001600160a01b039091168152602001610104565b610139610253366004610b51565b610957565b6000805461026590610bb8565b80601f016020809104026020016040519081016040528092919081815260200182805461029190610bb8565b80156102de5780601f106102b3576101008083540402835291602001916102de565b820191906000526020600020905b8154815290600101906020018083116102c157829003601f168201915b505050505081565b3360008181526005602090815260408083206001600160a01b038716808552925280832085905551919290917f8c5be1e5ebec7d5bd14f71427d1e84f3dd0314c0f7b2291e5b200ac8c7c3b925906103419086815260200190565b60405180910390a35060015b92915050565b6001600160a01b0383166000908152600460205260408120548211156103945760405162461bcd60e51b815260040161038b90610bf2565b60405180910390fd5b6001600160a01b03841660009081526005602090815260408083203384529091529020548211156103f55760405162461bcd60e51b815260206004820152600b60248201526a139bdd08185b1b1bddd95960aa1b604482015260640161038b565b6001600160a01b0384166000908152600460205260408120805484929061041d908490610c36565b90915550506001600160a01b0383166000908152600460205260408120805484929061044a908490610c49565b90915550506001600160a01b038416600090815260056020908152604080832033845290915281208054849290610482908490610c36565b92505081905550826001600160a01b0316846001600160a01b0316600080516020610de1833981519152846040516104bc91815260200190565b60405180910390a35060019392505050565b6006546001600160a01b031633146105155760405162461bcd60e51b815260206004820152600a60248201526927b7363c9030b236b4b760b11b604482015260640161038b565b600081116105355760405162461bcd60e51b815260040161038b90610c5c565b6002546000906105499060ff16600a610d77565b6105539083610d86565b6001600160a01b03841660009081526004602052604090205490915081111561058e5760405162461bcd60e51b815260040161038b90610bf2565b6001600160a01b038316600090815260046020526040812080548392906105b6908490610c36565b9250508190555080600360008282546105cf9190610c36565b90915550506040518181526000906001600160a01b03851690600080516020610de18339815191529060200160405180910390a3826001600160a01b03167f4896181ff8f4543cc00db9fe9b6fb7e6f032b7eb772c72ab1ec1b4d2e03b93698360405161063e91815260200190565b60405180910390a2505050565b6006546001600160a01b031633146106925760405162461bcd60e51b815260206004820152600a60248201526927b7363c9030b236b4b760b11b604482015260640161038b565b600082116106b25760405162461bcd60e51b815260040161038b90610c5c565b6002546000906106c69060ff16600a610d77565b6106d09084610d86565b6001600160a01b0385166000908152600460205260408120805492935083929091906106fd908490610c49565b9250508190555080600360008282546107169190610c49565b90915550506040518181526001600160a01b03851690600090600080516020610de18339815191529060200160405180910390a3836001600160a01b03167f6992574b5dfb88a4edcf45d5a55094ec820fda73984bac1917dc53ddd8e4944c8484604051610785929190610d9d565b60405180910390a250505050565b6001805461026590610bb8565b336000908152600460205260408120548211156107cf5760405162461bcd60e51b815260040161038b90610bf2565b33600090815260046020526040812080548492906107ee908490610c36565b90915550506001600160a01b0383166000908152600460205260408120805484929061081b908490610c49565b90915550506040518281526001600160a01b038416903390600080516020610de183398151915290602001610341565b6000811161086b5760405162461bcd60e51b815260040161038b90610c5c565b60025460009061087f9060ff16600a610d77565b6108899083610d86565b336000908152600460205260409020549091508111156108bb5760405162461bcd60e51b815260040161038b90610bf2565b33600090815260046020526040812080548392906108da908490610c36565b9250508190555080600360008282546108f39190610c36565b90915550506040518181526000903390600080516020610de18339815191529060200160405180910390a360405182815233907f4896181ff8f4543cc00db9fe9b6fb7e6f032b7eb772c72ab1ec1b4d2e03b93699060200160405180910390a25050565b60025460009061096b9060ff16600a610d77565b6001600160a01b03831660009081526004602052604090205461034d9190610dbe565b6000815180845260005b818110156109b457602081850181015186830182015201610998565b506000602082860101526020601f19601f83011685010191505092915050565b6020815260006109e7602083018461098e565b9392505050565b80356001600160a01b0381168114610a0557600080fd5b919050565b60008060408385031215610a1d57600080fd5b610a26836109ee565b946020939093013593505050565b600080600060608486031215610a4957600080fd5b610a52846109ee565b9250610a60602085016109ee565b9150604084013590509250925092565b634e487b7160e01b600052604160045260246000fd5b600080600060608486031215610a9b57600080fd5b610aa4846109ee565b925060208401359150604084013567ffffffffffffffff80821115610ac857600080fd5b818601915086601f830112610adc57600080fd5b813581811115610aee57610aee610a70565b604051601f8201601f19908116603f01168101908382118183101715610b1657610b16610a70565b81604052828152896020848701011115610b2f57600080fd5b8260208601602083013760006020848301015280955050505050509250925092565b600060208284031215610b6357600080fd5b6109e7826109ee565b600060208284031215610b7e57600080fd5b5035919050565b60008060408385031215610b9857600080fd5b610ba1836109ee565b9150610baf602084016109ee565b90509250929050565b600181811c90821680610bcc57607f821691505b602082108103610bec57634e487b7160e01b600052602260045260246000fd5b50919050565b602080825260149082015273496e73756666696369656e742062616c616e636560601b604082015260600190565b634e487b7160e01b600052601160045260246000fd5b8181038181111561034d5761034d610c20565b8082018082111561034d5761034d610c20565b60208082526017908201527f416d6f756e74206d75737420626520706f736974697665000000000000000000604082015260600190565b600181815b80851115610cce578160001904821115610cb457610cb4610c20565b80851615610cc157918102915b93841c9390800290610c98565b509250929050565b600082610ce55750600161034d565b81610cf25750600061034d565b8160018114610d085760028114610d1257610d2e565b600191505061034d565b60ff841115610d2357610d23610c20565b50506001821b61034d565b5060208310610133831016604e8410600b8410161715610d51575081810a61034d565b610d5b8383610c93565b8060001904821115610d6f57610d6f610c20565b029392505050565b60006109e760ff841683610cd6565b808202811582820484141761034d5761034d610c20565b828152604060208201526000610db6604083018461098e565b949350505050565b600082610ddb57634e487b7160e01b600052601260045260246000fd5b50049056feddf252ad1be2c89b69c2b068fc378daa952ba7f163c4a11628f55a4df523b3efa2646970667358221220eee230b1688c00c1153f7a1b5863938de513de1885ae0bd7526b083de003aaff64736f6c63430008140033",
  "immutableReferences": {},
  "source": "// SPDX-License-Identifier: MIT\npragma solidity ^0.8.0;\n\ncontract AcademicMeritToken {\n    string public name = \"Academic Merit Token\";\n    string public symbol = \"AMT\";\n    uint8 public decimals = 18;\n    uint256 public totalSupply;\n\n    mapping(address => uint256) public balanceOf;\n    mapping(address => mapping(address => uint256)) public allowance;\n\n    address public admin;\n\n    event Transfer(address indexed from, address indexed to, uint256 value);\n    event Approval(address indexed owner, address indexed spender, uint256 value);\n    event Awarded(address indexed student, uint256 amount, string reason);\n    event Redeemed(address indexed student, uint256 amount);\n\n    modifier onlyAdmin() {\n        require(msg.sender == admin, \"Only admin\");\n        _;\n    }\n\n    constructor() {\n        admin = msg.sender;\n    }\n\n    // ERC-20 стандартные методы\n    function transfer(address to, uint256 value) public returns (bool) {\n        require(balanceOf[msg.sender] >= value, \"Insufficient balance\");\n        balanceOf[msg.sender] -= value;\n        balanceOf[to] += value;\n        emit Transfer(msg.sender, to, value);\n        return true;\n    }\n\n    function approve(address spender, uint256 value) public returns (bool) {\n        allowance[msg.sender][spender] = value;\n        emit Approval(msg.sender, spender, value);\n        return true;\n    }\n\n    function transferFrom(address from, address to, uint256 value) public returns (bool) {\n        require(balanceOf[from] >= value, \"Insufficient balance\");\n        require(allowance[from][msg.sender] >= value, \"Not allowed\");\n        balanceOf[from] -= value;\n        balanceOf[to] += value;\n        allowance[from][msg.sender] -= value;\n        emit Transfer(from, to, value);\n        return true;\n    }\n\n    // Начисление токенов за достижения\n    function awardStudent(address student, uint256 amount, string memory reason) public onlyAdmin {\n        require(amount > 0, \"Amount must be positive\");\n        uint256 mintAmount = amount * 10**decimals;\n        balanceOf[student] += mintAmount;\n        totalSupply += mintAmount;\n        emit Transfer(address(0), student, mintAmount);\n        emit Awarded(student, amount, reason);\n    }\n\n    // Обмен токенов на привилегии (сжигание)\n    function redeem(uint256 amount) public {\n        require(amount > 0, \"Amount must be positive\");\n        uint256 burnAmount = amount * 10**decimals;\n        require(balanceOf[msg.sender] >= burnAmount, \"Insufficient balance\");\n        balanceOf[msg.sender] -= burnAmount;\n        totalSupply -= burnAmount;\n        emit Transfer(msg.sender, address(0), burnAmount);\n        emit Redeemed(msg.sender, amount);\n    }\n\n    // Административное списание токенов студента при покупке мерча\n    function redeemStudent(address student, uint256 amount) public onlyAdmin {\n        require(amount > 0, \"Amount must be positive\");\n        uint256 burnAmount = amount * 10**decimals;\n        require(balanceOf[student] >= burnAmount, \"Insufficient balance\");\n        balanceOf[student] -= burnAmount;\n        totalSupply -= burnAmount;\n        emit Transfer(student, address(0), burnAmount);\n        emit Redeemed(student, amount);\n    }\n\n    // Получить баланс в AMT (без wei)\n    function getBalance(address student) public view returns (uint256) {\n        return balanceOf[student] / 10**decimals;\n    }\n}\n",
  "sourcePath": "/home/nastya/blockchain_project/contract/contracts/AMToken.sol",
  "compiler": {
    "name": "solc",
    "version": "0.8.20+commit.a1b79de6.Emscripten.clang"
  },
  "schemaVersion": "3.4.16",
  "updatedAt": "2026-05-19T20:27:17.987Z",
  "devdoc": {
    "kind": "dev",
    "methods": {},
    "version": 1
  },
  "userdoc": {
    "kind": "user",
    "methods": {},
    "version": 1
  }
}